{
  "contractName": "subCampaign",
  "abi": [
    {
      "constant": false,
      "inputs": [],
      "name": "makeDonation",
      "outputs": [],
      "payable": true,
      "stateMutability": "payable",
      "type": "function",
      "signature": "0x40ea0a94"
    },
    {
      "constant": true,
      "inputs": [],
      "name": "donationInProgress",
      "outputs": [
        {
          "name": "",
          "type": "bool"
        }
      ],
      "payable": false,
      "stateMutability": "view",
      "type": "function",
      "signature": "0x47995180"
    },
    {
      "constant": false,
      "inputs": [],
      "name": "endCampaign",
      "outputs": [],
      "payable": false,
      "stateMutability": "nonpayable",
      "type": "function",
      "signature": "0x71aac7f9"
    },
    {
      "constant": true,
      "inputs": [],
      "name": "campaignInProgress",
      "outputs": [
        {
          "name": "",
          "type": "bool"
        }
      ],
      "payable": false,
      "stateMutability": "view",
      "type": "function",
      "signature": "0x991421df"
    },
    {
      "constant": false,
      "inputs": [],
      "name": "startCampaign",
      "outputs": [],
      "payable": false,
      "stateMutability": "nonpayable",
      "type": "function",
      "signature": "0xa8b78ed0"
    },
    {
      "constant": false,
      "inputs": [],
      "name": "endVoting",
      "outputs": [],
      "payable": false,
      "stateMutability": "nonpayable",
      "type": "function",
      "signature": "0xc3403ddf"
    }
  ],
  "bytecode": "0x608060405233600560006101000a81548173ffffffffffffffffffffffffffffffffffffffff021916908373ffffffffffffffffffffffffffffffffffffffff16021790555060646004819055506001601260006101000a81548160ff021916908315150217905550426006819055506103928061007e6000396000f3fe608060405260043610610078576000357c0100000000000000000000000000000000000000000000000000000000900463ffffffff16806340ea0a941461007d578063479951801461008757806371aac7f9146100b6578063991421df146100cd578063a8b78ed0146100fc578063c3403ddf14610113575b600080fd5b61008561012a565b005b34801561009357600080fd5b5061009c610243565b604051808215151515815260200191505060405180910390f35b3480156100c257600080fd5b506100cb610256565b005b3480156100d957600080fd5b506100e261028e565b604051808215151515815260200191505060405180910390f35b34801561010857600080fd5b506101116102a1565b005b34801561011f57600080fd5b50610128610364565b005b601260009054906101000a900460ff16151561014557600080fd5b6000600c60003373ffffffffffffffffffffffffffffffffffffffff1673ffffffffffffffffffffffffffffffffffffffff1681526020019081526020016000205414156101f457600f3390806001815401808255809150509060018203906000526020600020016000909192909190916101000a81548173ffffffffffffffffffffffffffffffffffffffff021916908373ffffffffffffffffffffffffffffffffffffffff160217905550505b34600c60003373ffffffffffffffffffffffffffffffffffffffff1673ffffffffffffffffffffffffffffffffffffffff16815260200190815260200160002060008282540192505081905550565b601260009054906101000a900460ff1681565b601260019054906101000a900460ff16151561027157600080fd5b6000601260016101000a81548160ff021916908315150217905550565b601260019054906101000a900460ff1681565b42600881905550600560009054906101000a900473ffffffffffffffffffffffffffffffffffffffff1673ffffffffffffffffffffffffffffffffffffffff166108fc6004543073ffffffffffffffffffffffffffffffffffffffff1631029081150290604051600060405180830381858888f1935050505015801561032b573d6000803e3d6000fd5b506000601260006101000a81548160ff0219169083151502179055506001601260016101000a81548160ff021916908315150217905550565b56fea165627a7a7230582050da13ba2f5d48f1edd47aa70f3b9c6a6f7250f3935fe019e675420d55c8a2780029",
  "source": "pragma solidity ^0.5.0;\n\nimport \"./Campaign.sol\";\n\ncontract subCampaign is Campaign {\n    \n}",
  "sourcePath": "/home/patrick/Documents/Ethereum/Chainge/contracts/secondContract.sol",
  "compiler": {
    "name": "solc",
    "version": "0.5.0+commit.1d4f565a.Emscripten.clang"
  },
  "schemaVersion": "3.0.1",
  "updatedAt": "2019-02-13T15:51:02.509Z",
  "devdoc": {
    "methods": {}
  },
  "userdoc": {
    "methods": {}
  }
}