{
  "contractName": "Campaign",
  "abi": [
    {
      "constant": true,
      "inputs": [],
      "name": "donationInProgress",
      "outputs": [
        {
          "name": "",
          "type": "bool"
        }
      ],
      "payable": false,
      "stateMutability": "view",
      "type": "function",
      "signature": "0x47995180"
    },
    {
      "constant": true,
      "inputs": [
        {
          "name": "",
          "type": "uint256"
        }
      ],
      "name": "communityProjects",
      "outputs": [
        {
          "name": "title",
          "type": "string"
        },
        {
          "name": "description",
          "type": "string"
        },
        {
          "name": "voteCount",
          "type": "uint256"
        },
        {
          "name": "account",
          "type": "address"
        }
      ],
      "payable": false,
      "stateMutability": "view",
      "type": "function",
      "signature": "0x59b94ec1"
    },
    {
      "constant": true,
      "inputs": [
        {
          "name": "",
          "type": "uint256"
        }
      ],
      "name": "donorsShare",
      "outputs": [
        {
          "name": "",
          "type": "uint256"
        }
      ],
      "payable": false,
      "stateMutability": "view",
      "type": "function",
      "signature": "0x7b05dcac"
    },
    {
      "constant": true,
      "inputs": [],
      "name": "campaignInProgress",
      "outputs": [
        {
          "name": "",
          "type": "bool"
        }
      ],
      "payable": false,
      "stateMutability": "view",
      "type": "function",
      "signature": "0x991421df"
    },
    {
      "inputs": [],
      "payable": false,
      "stateMutability": "nonpayable",
      "type": "constructor",
      "signature": "constructor"
    },
    {
      "payable": true,
      "stateMutability": "payable",
      "type": "fallback"
    },
    {
      "anonymous": false,
      "inputs": [
        {
          "indexed": true,
          "name": "communityProjectId",
          "type": "uint256"
        }
      ],
      "name": "votedEvent",
      "type": "event",
      "signature": "0xfff3c900d938d21d0990d786e819f29b8d05c1ef587b462b939609625b684b16"
    },
    {
      "constant": false,
      "inputs": [],
      "name": "startCampaign",
      "outputs": [],
      "payable": false,
      "stateMutability": "nonpayable",
      "type": "function",
      "signature": "0xa8b78ed0"
    },
    {
      "constant": false,
      "inputs": [],
      "name": "startVoting",
      "outputs": [],
      "payable": false,
      "stateMutability": "nonpayable",
      "type": "function",
      "signature": "0x1ec6b60a"
    },
    {
      "constant": false,
      "inputs": [],
      "name": "endVoting",
      "outputs": [],
      "payable": false,
      "stateMutability": "nonpayable",
      "type": "function",
      "signature": "0xc3403ddf"
    },
    {
      "constant": false,
      "inputs": [
        {
          "name": "_communityProjectId",
          "type": "uint256"
        },
        {
          "name": "_voteCount",
          "type": "uint256"
        }
      ],
      "name": "vote",
      "outputs": [],
      "payable": false,
      "stateMutability": "nonpayable",
      "type": "function",
      "signature": "0xb384abef"
    },
    {
      "constant": false,
      "inputs": [],
      "name": "payout",
      "outputs": [],
      "payable": false,
      "stateMutability": "nonpayable",
      "type": "function",
      "signature": "0x63bd1d4a"
    },
    {
      "constant": false,
      "inputs": [
        {
          "name": "addr",
          "type": "address"
        },
        {
          "name": "num",
          "type": "uint256"
        }
      ],
      "name": "getTokens",
      "outputs": [],
      "payable": false,
      "stateMutability": "nonpayable",
      "type": "function",
      "signature": "0x2c512d6e"
    }
  ],
  "bytecode": "0x60806040526127106007553480156200001757600080fd5b5033600560006101000a81548173ffffffffffffffffffffffffffffffffffffffff021916908373ffffffffffffffffffffffffffffffffffffffff1602179055506046600481905550601e600981905550601e600b81905550601e600d81905550620000c86040805190810160405280601281526020017f436f6d6d756e69747950726f6a656374203100000000000000000000000000008152506200013f640100000000026401000000009004565b620001176040805190810160405280601281526020017f436f6d6d756e69747950726f6a656374203200000000000000000000000000008152506200013f640100000000026401000000009004565b6001601560006101000a81548160ff0219169083151502179055504260088190555062000332565b600e6080604051908101604052808381526020016040805190810160405280600481526020017f6465736300000000000000000000000000000000000000000000000000000000815250815260200160028152602001730fb4256f2df60eab5788a0e413c7c30b3afb533373ffffffffffffffffffffffffffffffffffffffff168152509080600181540180825580915050906001820390600052602060002090600402016000909192909190915060008201518160000190805190602001906200020c92919062000283565b5060208201518160010190805190602001906200022b92919062000283565b506040820151816002015560608201518160030160006101000a81548173ffffffffffffffffffffffffffffffffffffffff021916908373ffffffffffffffffffffffffffffffffffffffff16021790555050505050565b828054600181600116156101000203166002900490600052602060002090601f016020900481019282601f10620002c657805160ff1916838001178555620002f7565b82800160010185558215620002f7579182015b82811115620002f6578251825591602001919060010190620002d9565b5b5090506200030691906200030a565b5090565b6200032f91905b808211156200032b57600081600090555060010162000311565b5090565b90565b61110680620003426000396000f3fe6080604052600436106100a4576000357c0100000000000000000000000000000000000000000000000000000000900463ffffffff1680631ec6b60a146102265780632c512d6e1461023d578063479951801461029857806359b94ec1146102c757806363bd1d4a146104215780637b05dcac14610438578063991421df14610487578063a8b78ed0146104b6578063b384abef146104cd578063c3403ddf14610512575b601560009054906101000a900460ff161515610128576040517f08c379a00000000000000000000000000000000000000000000000000000000081526004018080602001828103825260188152602001807f646f6e6174696f6e206e6f7420696e2070726f6772657373000000000000000081525060200191505060405180910390fd5b6000600f60003373ffffffffffffffffffffffffffffffffffffffff1673ffffffffffffffffffffffffffffffffffffffff1681526020019081526020016000205414156101d75760113390806001815401808255809150509060018203906000526020600020016000909192909190916101000a81548173ffffffffffffffffffffffffffffffffffffffff021916908373ffffffffffffffffffffffffffffffffffffffff160217905550505b34600f60003373ffffffffffffffffffffffffffffffffffffffff1673ffffffffffffffffffffffffffffffffffffffff16815260200190815260200160002060008282540192505081905550005b34801561023257600080fd5b5061023b610529565b005b34801561024957600080fd5b506102966004803603604081101561026057600080fd5b81019080803573ffffffffffffffffffffffffffffffffffffffff1690602001909291908035906020019092919050505061072f565b005b3480156102a457600080fd5b506102ad610780565b604051808215151515815260200191505060405180910390f35b3480156102d357600080fd5b50610300600480360360208110156102ea57600080fd5b8101908080359060200190929190505050610793565b6040518080602001806020018581526020018473ffffffffffffffffffffffffffffffffffffffff1673ffffffffffffffffffffffffffffffffffffffff168152602001838103835287818151815260200191508051906020019080838360005b8381101561037c578082015181840152602081019050610361565b50505050905090810190601f1680156103a95780820380516001836020036101000a031916815260200191505b50838103825286818151815260200191508051906020019080838360005b838110156103e25780820151818401526020810190506103c7565b50505050905090810190601f16801561040f5780820380516001836020036101000a031916815260200191505b50965050505050505060405180910390f35b34801561042d57600080fd5b50610436610922565b005b34801561044457600080fd5b506104716004803603602081101561045b57600080fd5b81019080803590602001909291905050506109cd565b6040518082815260200191505060405180910390f35b34801561049357600080fd5b5061049c6109f0565b604051808215151515815260200191505060405180910390f35b3480156104c257600080fd5b506104cb610a03565b005b3480156104d957600080fd5b50610510600480360360408110156104f057600080fd5b810190808035906020019092919080359060200190929190505050610c08565b005b34801561051e57600080fd5b50610527610ed4565b005b601560019054906101000a900460ff1615156105ad576040517f08c379a00000000000000000000000000000000000000000000000000000000081526004018080602001828103825260188152602001807f63616d706169676e206e6f7420696e2070726f6772657373000000000000000081525060200191505060405180910390fd5b600b54600a54014210151515610651576040517f08c379a00000000000000000000000000000000000000000000000000000000081526004018080602001828103825260228152602001807f746f6f20736f6f6e2c2063616d706169676e2074696d65206e6f74207965742081526020017f757000000000000000000000000000000000000000000000000000000000000081525060400191505060405180910390fd5b6000151561065d610ed6565b151514156106725761066d610ede565b61072d565b60011515600015151415156106ef576040517f08c379a000000000000000000000000000000000000000000000000000000000815260040180806020018281038252601a8152602001807f696d7061637420676f616c73207765726520616368696576656400000000000081525060200191505060405180910390fd5b42600c819055506000601560016101000a81548160ff0219169083151502179055506001601560026101000a81548160ff0219169083151502179055505b565b80601360008473ffffffffffffffffffffffffffffffffffffffff1673ffffffffffffffffffffffffffffffffffffffff168152602001908152602001600020600082825401925050819055505050565b601560009054906101000a900460ff1681565b600e818154811015156107a257fe5b9060005260206000209060040201600091509050806000018054600181600116156101000203166002900480601f01602080910402602001604051908101604052809291908181526020018280546001816001161561010002031660029004801561084e5780601f106108235761010080835404028352916020019161084e565b820191906000526020600020905b81548152906001019060200180831161083157829003601f168201915b505050505090806001018054600181600116156101000203166002900480601f0160208091040260200160405190810160405280929190818152602001828054600181600116156101000203166002900480156108ec5780601f106108c1576101008083540402835291602001916108ec565b820191906000526020600020905b8154815290600101906020018083116108cf57829003601f168201915b5050505050908060020154908060030160009054906101000a900473ffffffffffffffffffffffffffffffffffffffff16905084565b60008090505b600e805490508110156109ca57600e8181548110151561094457fe5b906000526020600020906004020160030160009054906101000a900473ffffffffffffffffffffffffffffffffffffffff1673ffffffffffffffffffffffffffffffffffffffff166108fc60019081150290604051600060405180830381858888f193505050501580156109bc573d6000803e3d6000fd5b508080600101915050610928565b50565b6012818154811015156109dc57fe5b906000526020600020016000915090505481565b601560019054906101000a900460ff1681565b601560009054906101000a900460ff161515610a87576040517f08c379a00000000000000000000000000000000000000000000000000000000081526004018080602001828103825260188152602001807f646f6e6174696f6e206e6f7420696e2070726f6772657373000000000000000081525060200191505060405180910390fd5b600954600854014210151515610b2b576040517f08c379a00000000000000000000000000000000000000000000000000000000081526004018080602001828103825260248152602001807f746f6f20736f6f6e2c20646f6e6174696f6e732074696d65206e6f742079657481526020017f2075702e0000000000000000000000000000000000000000000000000000000081525060400191505060405180910390fd5b610b33610fd2565b42600a819055506000601560006101000a81548160ff0219169083151502179055506001601560016101000a81548160ff021916908315150217905550600060045460643073ffffffffffffffffffffffffffffffffffffffff1631811515610b9857fe5b04029050600560009054906101000a900473ffffffffffffffffffffffffffffffffffffffff1673ffffffffffffffffffffffffffffffffffffffff166108fc829081150290604051600060405180830381858888f19350505050158015610c04573d6000803e3d6000fd5b5050565b601560029054906101000a900460ff161515610c8c576040517f08c379a00000000000000000000000000000000000000000000000000000000081526004018080602001828103825260168152602001807f566f74696e67206e6f7420696e2070726f67726573730000000000000000000081525060200191505060405180910390fd5b80601360003373ffffffffffffffffffffffffffffffffffffffff1673ffffffffffffffffffffffffffffffffffffffff1681526020019081526020016000205410151515610d69576040517f08c379a00000000000000000000000000000000000000000000000000000000081526004018080602001828103825260268152602001807f5468652073656e64657220646f65736e2774206861766520656e6f756768207481526020017f6f6b656e7321000000000000000000000000000000000000000000000000000081525060400191505060405180910390fd5b60008210158015610d7e5750600e8054905082105b1515610e18576040517f08c379a00000000000000000000000000000000000000000000000000000000081526004018080602001828103825260298152602001807f54686520676976656e20436f6d6d756e69747950726f6a65637420696420697381526020017f20696e76616c696421000000000000000000000000000000000000000000000081525060400191505060405180910390fd5b80601360003373ffffffffffffffffffffffffffffffffffffffff1673ffffffffffffffffffffffffffffffffffffffff1681526020019081526020016000206000828254039250508190555080600e83815481101515610e7557fe5b90600052602060002090600402016002016000828254019250508190555080601660008282540192505081905550817ffff3c900d938d21d0990d786e819f29b8d05c1ef587b462b939609625b684b1660405160405180910390a25050565b565b600080905090565b60003073ffffffffffffffffffffffffffffffffffffffff1631905060008090505b601180549050811015610fce576000601282815481101515610f1e57fe5b906000526020600020015460075484811515610f3657fe5b040290506000601183815481101515610f4b57fe5b9060005260206000200160009054906101000a900473ffffffffffffffffffffffffffffffffffffffff1690508073ffffffffffffffffffffffffffffffffffffffff166108fc839081150290604051600060405180830381858888f19350505050158015610fbe573d6000803e3d6000fd5b5050508080600101915050610f00565b5050565b3073ffffffffffffffffffffffffffffffffffffffff163160068190555060008090505b6011805490508110156110d757600060118281548110151561101457fe5b9060005260206000200160009054906101000a900473ffffffffffffffffffffffffffffffffffffffff1690506000600f60008373ffffffffffffffffffffffffffffffffffffffff1673ffffffffffffffffffffffffffffffffffffffff1681526020019081526020016000205490506000600654600754830281151561109857fe5b04905060128190806001815401808255809150509060018203906000526020600020016000909192909190915055505050508080600101915050610ff6565b5056fea165627a7a72305820618c144b4fdc36df79dea516e85765ef6d73f2230e4cfe79eaaad1c1aae17a9b0029",
  "source": "pragma solidity ^0.5.0;\n\ncontract Campaign {\n\n    string title;\n    string country;\n    string description;\n    uint goalScore;\n    uint ratioProject;\n    address payable owner;\n\n    uint totalBalance;\n    uint precision = 10000;\n\n    uint startTimeDonations;\n    uint runTimeDonations;\n\n    uint startTimeCampaign;\n    uint runTimeCampaign;\n    \n    uint startTimeVoting;\n    uint runTimeVoting; \n\n    struct CommunityProject {\n        string title;\n        string description;\n        uint voteCount;\n        address payable account;\n    }\n\n    CommunityProject[] public communityProjects;\n\n    mapping (address => uint) donorsAmount;\n    mapping (uint => address) idDonor;\n    address[] donors;\n    uint[] public donorsShare;\n\n    mapping (address => uint) gatherersToken;\n    address[] gatherers;\n\n    bool public donationInProgress;\n    bool public campaignInProgress;\n    bool votingInProgress;\n        \n    constructor() public {\n        owner = msg.sender;\n        ratioProject = 70;\n\n        runTimeDonations = 30 seconds;\n        runTimeCampaign = 30 seconds;\n        runTimeVoting = 30 seconds;\n\n        addCommunityProject(\"CommunityProject 1\");\n        addCommunityProject(\"CommunityProject 2\");\n\n        donationInProgress = true;\n        startTimeDonations = now;\n    }\n\n    function() external payable {\n        require(donationInProgress, \"donation not in progress\");\n        if(donorsAmount[msg.sender] == 0) {\n            donors.push(msg.sender);\n        }\n        donorsAmount[msg.sender] += msg.value;\n    }\n\n    function startCampaign() external {\n        require(donationInProgress, \"donation not in progress\");\n        require(now >= startTimeDonations + runTimeDonations, \"too soon, donations time not yet up.\");\n\n        _calculateDonorsShare();\n        startTimeCampaign = now;\n        donationInProgress = false;\n        campaignInProgress = true;\n\n        uint forOwner = (address(this).balance / 100) * ratioProject;\n        owner.transfer(forOwner);        \n    }\n\n    function _calculateDonorsShare() internal {\n        totalBalance = address(this).balance;\n        for(uint i = 0; i < donors.length; i++) {\n            address donorAddress = donors[i];\n            uint donation = donorsAmount[donorAddress];\n            uint share = (donation * precision) / totalBalance;\n            donorsShare.push(share);\n        }\n    }\n\n    function _refund() internal {\n        uint totalRefund = address(this).balance;\n        for(uint i = 0; i < donors.length; i++) {\n            uint refundAmount = (totalRefund / precision) * donorsShare[i];\n            address payable donorAddress = address(uint160(donors[i]));\n            donorAddress.transfer(refundAmount);\n        }\n    } \n\n    function startVoting() external {\n        require(campaignInProgress, \"campaign not in progress\");\n        require(now >= startTimeCampaign + runTimeCampaign, \"too soon, campaign time not yet up\");\n        if(_impactGoalsAchieved() == false) {\n            _refund();\n        } else {\n            require(false == true, \"impact goals were achieved\");\n            startTimeVoting = now;\n            campaignInProgress = false;\n            votingInProgress = true;\n        }\n    }\n\n    function endVoting() external {\n        //check, if runtime is over\n        //check, if votingInProgress\n        //pay out according to tokens invested\n    }\n\n\n\n    /// * VOTING *\n\n    uint voteCountTotal;\n\n    event votedEvent (\n        uint indexed communityProjectId\n    );\n\n    function vote(uint _communityProjectId, uint _voteCount) public {\n        // check if voting is in progress\n        require(votingInProgress, \"Voting not in progress\");\n\n        // require that they haven sufficient votingTokens\n        /* msg.sender: address of the function caller */\n        require(gatherersToken[msg.sender] >= _voteCount, \"The sender doesn't have enough tokens!\");\n\n        // require a valid CommunityProject\n        require(_communityProjectId >= 0 && _communityProjectId < communityProjects.length, \"The given CommunityProject id is invalid!\");\n\n        // reduce votingToken count \n        gatherersToken[msg.sender] -= _voteCount;\n\n        // update CommunityProject vote Count\n        communityProjects[_communityProjectId].voteCount += _voteCount;\n\n        voteCountTotal += _voteCount;\n\n        //trigger vote event\n        emit votedEvent(_communityProjectId);\n    }\n\n    function payout() public{\n        for(uint i = 0; i < communityProjects.length; i++ ){\n            communityProjects[i].account.transfer(1);\n        }\n    }\n\n    function addCommunityProject(string memory name) private {\n        communityProjects.push(CommunityProject(name, \"desc\", 2, 0x0fb4256f2dF60eab5788a0e413C7C30b3AfB5333));\n    }\n\n\n\n\n    // ***** PROOFING ******\n\n    function getTokens(address addr, uint num) public{\n        gatherersToken[addr] += num;\n    }\n\n    function _impactGoalsAchieved() internal returns (bool) {\n        //check, whether impactGoals were achieved\n        return false;\n    }\n\n} ",
  "sourcePath": "/home/patrick/Documents/Ethereum/ChaingeFinal/chainge/contracts/Campaign.sol",
  "compiler": {
    "name": "solc",
    "version": "0.5.0+commit.1d4f565a.Emscripten.clang"
  },
  "schemaVersion": "3.0.1",
  "updatedAt": "2019-02-13T22:12:01.497Z",
  "devdoc": {
    "methods": {}
  },
  "userdoc": {
    "methods": {}
  }
}