{
  "contractName": "Campaign",
  "abi": [
    {
      "constant": true,
      "inputs": [],
      "name": "donationInProgress",
      "outputs": [
        {
          "name": "",
          "type": "bool"
        }
      ],
      "payable": false,
      "stateMutability": "view",
      "type": "function",
      "signature": "0x47995180"
    },
    {
      "constant": true,
      "inputs": [
        {
          "name": "",
          "type": "uint256"
        }
      ],
      "name": "communityProjects",
      "outputs": [
        {
          "name": "title",
          "type": "string"
        },
        {
          "name": "description",
          "type": "string"
        },
        {
          "name": "voteCount",
          "type": "uint256"
        },
        {
          "name": "account",
          "type": "address"
        }
      ],
      "payable": false,
      "stateMutability": "view",
      "type": "function",
      "signature": "0x59b94ec1"
    },
    {
      "constant": true,
      "inputs": [],
      "name": "campaignInProgress",
      "outputs": [
        {
          "name": "",
          "type": "bool"
        }
      ],
      "payable": false,
      "stateMutability": "view",
      "type": "function",
      "signature": "0x991421df"
    },
    {
      "inputs": [],
      "payable": false,
      "stateMutability": "nonpayable",
      "type": "constructor",
      "signature": "constructor"
    },
    {
      "anonymous": false,
      "inputs": [
        {
          "indexed": true,
          "name": "communityProjectId",
          "type": "uint256"
        }
      ],
      "name": "votedEvent",
      "type": "event",
      "signature": "0xfff3c900d938d21d0990d786e819f29b8d05c1ef587b462b939609625b684b16"
    },
    {
      "constant": false,
      "inputs": [],
      "name": "makeDonation",
      "outputs": [],
      "payable": true,
      "stateMutability": "payable",
      "type": "function",
      "signature": "0x40ea0a94"
    },
    {
      "constant": false,
      "inputs": [],
      "name": "startCampaign",
      "outputs": [],
      "payable": false,
      "stateMutability": "nonpayable",
      "type": "function",
      "signature": "0xa8b78ed0"
    },
    {
      "constant": false,
      "inputs": [],
      "name": "endCampaign",
      "outputs": [],
      "payable": false,
      "stateMutability": "nonpayable",
      "type": "function",
      "signature": "0x71aac7f9"
    },
    {
      "constant": false,
      "inputs": [],
      "name": "endVoting",
      "outputs": [],
      "payable": false,
      "stateMutability": "nonpayable",
      "type": "function",
      "signature": "0xc3403ddf"
    },
    {
      "constant": false,
      "inputs": [
        {
          "name": "_communityProjectId",
          "type": "uint256"
        },
        {
          "name": "_voteCount",
          "type": "uint256"
        }
      ],
      "name": "vote",
      "outputs": [],
      "payable": false,
      "stateMutability": "nonpayable",
      "type": "function",
      "signature": "0xb384abef"
    },
    {
      "constant": false,
      "inputs": [],
      "name": "payout",
      "outputs": [],
      "payable": false,
      "stateMutability": "nonpayable",
      "type": "function",
      "signature": "0x63bd1d4a"
    },
    {
      "constant": false,
      "inputs": [
        {
          "name": "addr",
          "type": "address"
        },
        {
          "name": "num",
          "type": "uint256"
        }
      ],
      "name": "getTokens",
      "outputs": [],
      "payable": false,
      "stateMutability": "nonpayable",
      "type": "function",
      "signature": "0x2c512d6e"
    }
  ],
  "bytecode": "0x608060405234801561001057600080fd5b5033600560006101000a81548173ffffffffffffffffffffffffffffffffffffffff021916908373ffffffffffffffffffffffffffffffffffffffff16021790555060466004819055506100a76040805190810160405280601281526020017f436f6d6d756e69747950726f6a6563742031000000000000000000000000000081525061011b640100000000026401000000009004565b6100f46040805190810160405280601281526020017f436f6d6d756e69747950726f6a6563742032000000000000000000000000000081525061011b640100000000026401000000009004565b6001601360006101000a81548160ff02191690831515021790555042600681905550610300565b600c6080604051908101604052808381526020016040805190810160405280600481526020017f6465736300000000000000000000000000000000000000000000000000000000815250815260200160028152602001730fb4256f2df60eab5788a0e413c7c30b3afb533373ffffffffffffffffffffffffffffffffffffffff168152509080600181540180825580915050906001820390600052602060002090600402016000909192909190915060008201518160000190805190602001906101e692919061025b565b50602082015181600101908051906020019061020392919061025b565b506040820151816002015560608201518160030160006101000a81548173ffffffffffffffffffffffffffffffffffffffff021916908373ffffffffffffffffffffffffffffffffffffffff16021790555050505050565b828054600181600116156101000203166002900490600052602060002090601f016020900481019282601f1061029c57805160ff19168380011785556102ca565b828001600101855582156102ca579182015b828111156102c95782518255916020019190600101906102ae565b5b5090506102d791906102db565b5090565b6102fd91905b808211156102f95760008160009055506001016102e1565b5090565b90565b610b538061030f6000396000f3fe6080604052600436106100a4576000357c0100000000000000000000000000000000000000000000000000000000900463ffffffff1680632c512d6e146100a957806340ea0a9414610104578063479951801461010e57806359b94ec11461013d57806363bd1d4a1461029757806371aac7f9146102ae578063991421df146102c5578063a8b78ed0146102f4578063b384abef1461030b578063c3403ddf14610350575b600080fd5b3480156100b557600080fd5b50610102600480360360408110156100cc57600080fd5b81019080803573ffffffffffffffffffffffffffffffffffffffff16906020019092919080359060200190929190505050610367565b005b61010c6103b8565b005b34801561011a57600080fd5b506101236104d1565b604051808215151515815260200191505060405180910390f35b34801561014957600080fd5b506101766004803603602081101561016057600080fd5b81019080803590602001909291905050506104e4565b6040518080602001806020018581526020018473ffffffffffffffffffffffffffffffffffffffff1673ffffffffffffffffffffffffffffffffffffffff168152602001838103835287818151815260200191508051906020019080838360005b838110156101f25780820151818401526020810190506101d7565b50505050905090810190601f16801561021f5780820380516001836020036101000a031916815260200191505b50838103825286818151815260200191508051906020019080838360005b8381101561025857808201518184015260208101905061023d565b50505050905090810190601f1680156102855780820380516001836020036101000a031916815260200191505b50965050505050505060405180910390f35b3480156102a357600080fd5b506102ac610673565b005b3480156102ba57600080fd5b506102c361071e565b005b3480156102d157600080fd5b506102da610756565b604051808215151515815260200191505060405180910390f35b34801561030057600080fd5b50610309610769565b005b34801561031757600080fd5b5061034e6004803603604081101561032e57600080fd5b810190808035906020019092919080359060200190929190505050610859565b005b34801561035c57600080fd5b50610365610b25565b005b80601160008473ffffffffffffffffffffffffffffffffffffffff1673ffffffffffffffffffffffffffffffffffffffff168152602001908152602001600020600082825401925050819055505050565b601360009054906101000a900460ff1615156103d357600080fd5b6000600d60003373ffffffffffffffffffffffffffffffffffffffff1673ffffffffffffffffffffffffffffffffffffffff1681526020019081526020016000205414156104825760103390806001815401808255809150509060018203906000526020600020016000909192909190916101000a81548173ffffffffffffffffffffffffffffffffffffffff021916908373ffffffffffffffffffffffffffffffffffffffff160217905550505b34600d60003373ffffffffffffffffffffffffffffffffffffffff1673ffffffffffffffffffffffffffffffffffffffff16815260200190815260200160002060008282540192505081905550565b601360009054906101000a900460ff1681565b600c818154811015156104f357fe5b9060005260206000209060040201600091509050806000018054600181600116156101000203166002900480601f01602080910402602001604051908101604052809291908181526020018280546001816001161561010002031660029004801561059f5780601f106105745761010080835404028352916020019161059f565b820191906000526020600020905b81548152906001019060200180831161058257829003601f168201915b505050505090806001018054600181600116156101000203166002900480601f01602080910402602001604051908101604052809291908181526020018280546001816001161561010002031660029004801561063d5780601f106106125761010080835404028352916020019161063d565b820191906000526020600020905b81548152906001019060200180831161062057829003601f168201915b5050505050908060020154908060030160009054906101000a900473ffffffffffffffffffffffffffffffffffffffff16905084565b60008090505b600c8054905081101561071b57600c8181548110151561069557fe5b906000526020600020906004020160030160009054906101000a900473ffffffffffffffffffffffffffffffffffffffff1673ffffffffffffffffffffffffffffffffffffffff166108fc60019081150290604051600060405180830381858888f1935050505015801561070d573d6000803e3d6000fd5b508080600101915050610679565b50565b601360019054906101000a900460ff16151561073957600080fd5b6000601360016101000a81548160ff021916908315150217905550565b601360019054906101000a900460ff1681565b601360009054906101000a900460ff16151561078457600080fd5b42600881905550600060045460643073ffffffffffffffffffffffffffffffffffffffff16318115156107b357fe5b04029050600560009054906101000a900473ffffffffffffffffffffffffffffffffffffffff1673ffffffffffffffffffffffffffffffffffffffff166108fc829081150290604051600060405180830381858888f1935050505015801561081f573d6000803e3d6000fd5b506000601360006101000a81548160ff0219169083151502179055506001601360016101000a81548160ff02191690831515021790555050565b601360029054906101000a900460ff1615156108dd576040517f08c379a00000000000000000000000000000000000000000000000000000000081526004018080602001828103825260168152602001807f566f74696e67206e6f7420696e2070726f67726573730000000000000000000081525060200191505060405180910390fd5b80601160003373ffffffffffffffffffffffffffffffffffffffff1673ffffffffffffffffffffffffffffffffffffffff16815260200190815260200160002054101515156109ba576040517f08c379a00000000000000000000000000000000000000000000000000000000081526004018080602001828103825260268152602001807f5468652073656e64657220646f65736e2774206861766520656e6f756768207481526020017f6f6b656e7321000000000000000000000000000000000000000000000000000081525060400191505060405180910390fd5b600082101580156109cf5750600c8054905082105b1515610a69576040517f08c379a00000000000000000000000000000000000000000000000000000000081526004018080602001828103825260298152602001807f54686520676976656e20436f6d6d756e69747950726f6a65637420696420697381526020017f20696e76616c696421000000000000000000000000000000000000000000000081525060400191505060405180910390fd5b80601160003373ffffffffffffffffffffffffffffffffffffffff1673ffffffffffffffffffffffffffffffffffffffff1681526020019081526020016000206000828254039250508190555080600c83815481101515610ac657fe5b90600052602060002090600402016002016000828254019250508190555080601560008282540192505081905550817ffff3c900d938d21d0990d786e819f29b8d05c1ef587b462b939609625b684b1660405160405180910390a25050565b56fea165627a7a72305820ac1e693b8d8f9163e9f32dc919e9b64d373c0135a6ecda87b668108b5a911d5f0029",
  "source": "pragma solidity ^0.5.0;\r\n\r\ncontract Campaign {\r\n\r\n    string title;\r\n    string country;\r\n    string description;\r\n    uint goalScore;\r\n    uint ratioProject;\r\n    address payable owner;\r\n\r\n    uint startTimeDonations;\r\n    uint runTimeDonations;\r\n\r\n    uint startTimeCampaign;\r\n    uint runTimeCampaign;\r\n    \r\n    uint startTimeVoting;\r\n    uint runTimeVoting; \r\n\r\n    struct CommunityProject {\r\n        string title;\r\n        string description;\r\n        uint voteCount;\r\n        address payable account;\r\n    }\r\n\r\n    CommunityProject[] public communityProjects;\r\n\r\n    mapping (address => uint) donorsAmount;\r\n    mapping (address => uint) donorsPercentage;\r\n    mapping (uint => address) idDonor;\r\n    address[] donors;\r\n\r\n    mapping (address => uint) gatherersToken;\r\n    address[] gatherers;\r\n\r\n    bool public donationInProgress;\r\n    bool public campaignInProgress;\r\n    bool votingInProgress;\r\n        \r\n    constructor() public {\r\n        owner = msg.sender;\r\n        ratioProject = 70;\r\n\r\n        addCommunityProject(\"CommunityProject 1\");\r\n        addCommunityProject(\"CommunityProject 2\");\r\n\r\n        donationInProgress = true;\r\n        startTimeDonations = now;\r\n    }\r\n\r\n    function makeDonation() external payable {\r\n        require(donationInProgress);\r\n        if(donorsAmount[msg.sender] == 0) {\r\n            donors.push(msg.sender);\r\n        }\r\n        donorsAmount[msg.sender] += msg.value;\r\n    }\r\n\r\n    function startCampaign() external {\r\n        require(donationInProgress);\r\n        startTimeCampaign = now;\r\n\r\n        //owner.transfer(address(this).balance * ratioProject);\r\n\r\n        uint forOwner = (address(this).balance / 100) * ratioProject;\r\n        owner.transfer(forOwner);\r\n\r\n        donationInProgress = false;\r\n        campaignInProgress = true;\r\n    }\r\n\r\n    function endCampaign() external {\r\n        require(campaignInProgress);\r\n        //check, if runtime is over\r\n        //check, if votingInProgress\r\n        //check, if impactGoals were reached\r\n        //if yes -> _startVoting();\r\n        //else -> refund();\r\n\r\n        campaignInProgress = false;\r\n    } \r\n\r\n    function _refund() internal {\r\n\r\n    } \r\n\r\n    function _startVoting() internal {\r\n        //set startTimeVoting;\r\n        votingInProgress = true;\r\n        startTimeVoting = now;\r\n    }\r\n\r\n    function endVoting() external {\r\n        //check, if runtime is over\r\n        //check, if votingInProgress\r\n        //pay out according to tokens invested\r\n    }\r\n\r\n\r\n\r\n    /// ***** VOTING *****\r\n\r\n    uint totalBalance;\r\n    uint voteCountTotal;\r\n\r\n    event votedEvent (\r\n        uint indexed communityProjectId\r\n    );\r\n\r\n    function vote(uint _communityProjectId, uint _voteCount) public {\r\n        // check if voting is in progress\r\n        require(votingInProgress, \"Voting not in progress\");\r\n\r\n        // require that they haven sufficient votingTokens\r\n        /* msg.sender: address of the function caller */\r\n        require(gatherersToken[msg.sender] >= _voteCount, \"The sender doesn't have enough tokens!\");\r\n\r\n        // require a valid CommunityProject\r\n        require(_communityProjectId >= 0 && _communityProjectId < communityProjects.length, \"The given CommunityProject id is invalid!\");\r\n\r\n        // reduce votingToken count \r\n        gatherersToken[msg.sender] -= _voteCount;\r\n\r\n        // update CommunityProject vote Count\r\n        communityProjects[_communityProjectId].voteCount += _voteCount;\r\n\r\n        voteCountTotal += _voteCount;\r\n\r\n        //trigger vote event\r\n        emit votedEvent(_communityProjectId);\r\n    }\r\n\r\n    function payout() public{\r\n        for(uint i = 0; i < communityProjects.length; i++ ){\r\n            communityProjects[i].account.transfer(1);\r\n        }\r\n    }\r\n\r\n    function addCommunityProject(string memory name) private {\r\n        communityProjects.push(CommunityProject(name, \"desc\", 2, 0x0fb4256f2dF60eab5788a0e413C7C30b3AfB5333));\r\n    }\r\n\r\n\r\n\r\n\r\n    // ***** PROOFING ******\r\n\r\n    function getTokens(address addr, uint num) public{\r\n        gatherersToken[addr] += num;\r\n    }\r\n\r\n} ",
  "sourcePath": "D:/projekte/dev/blockchain/chainge-git/contracts/Campaign.sol",
  "compiler": {
    "name": "solc",
    "version": "0.5.0+commit.1d4f565a.Emscripten.clang"
  },
  "schemaVersion": "3.0.1",
  "updatedAt": "2019-02-13T17:15:15.115Z",
  "devdoc": {
    "methods": {}
  },
  "userdoc": {
    "methods": {}
  }
}